:1000000073C197C19CC89BC894C193C192C191C14F
:1000100090C18FC18EC149C8F8C78BC18AC189C13F
:1000200088C100003A00370000000000000403020D
:10003000010000007C4F70656E456E657267794DFA
:100040006F6E69746F722E6F7267007C656D6F6E74
:10005000426173655F72666D363970695F4C504CF2
:100060002056007C000A00202868696464656E29B7
:100070002E00206279746573002C20446174612025
:1000800073697A653A2000205369676E61747572EE
:10009000653A20007C004E6F206461746120626CC0
:1000A0006F636B20666F756E64202D20454550523E
:1000B0004F4D206170706561727320746F206265AE
:1000C00020666F726D617474656420746F204F4593
:1000D0004D205374616E6461726420627574207582
:1000E0006E757365642E007C007C000A00206279C6
:1000F0007465732C206E6F7420666F726D617474FA
:10010000656420746F204F454D205374616E6461A7
:1001100072640053697A653A20007C000D0A7C43C2
:100120006F6E6669672073617665640D0A7C007C7A
:100130004E6F64652049443A20007C47726F7570A9
:100140003A20002064426D007C506F7765723A203F
:10015000003931354D487A003836384D487A003408
:1001600033334D487A007C52462042616E643A2017
:10017000007C53657474696E6773007C0A7C4176F9
:1001800061696C61626C6520636F6D6D616E647333
:100190003A0A7C206C09092D206C69737420636F06
:1001A0006E6669670A7C207309092D207361766584
:1001B00020746F20454550524F4D0A7C2076090926
:1001C0002D2073686F772076657273696F6E0A7C75
:1001D00020563C6E3E09092D20766572626F73656C
:1001E000206D6F64652C2031203D204F4E2C203037
:1001F000203D204F46460A7C20673C6E6E6E3E09CD
:100200002D207365742047726F757020284F454DFF
:100210002064656661756C74203D20323130290A96
:100220007C206E3C6E6E3E09092D20736574206E35
:100230006F64652049442028312E2E3630290A7CEF
:1002400020543C6363633E5C6E092D207472616EC2
:10025000736D6974206120737472696E672E0A7CF5
:10026000203F09092D2073686F7720746869732017
:10027000616761696E0A7C006F6666006F6E007C64
:10028000566572626F7365206D6F646520007C65D2
:100290006D6F6E506920434D2056007C4E6F646533
:1002A00020007C47726F7570200020620A00202DAC
:1002B0003E2000290028002000200020004F4B0095
:1002C0007C000A007C0000003B00380001010101B5
:1002D0000101010102020202010204081020408013
:1002E000040201081709D60D11241FBECFE5D2E084
:1002F000DEBFCDBF21E0A0EAB0E001C01D92A33E69
:10030000B207E1F710E0A0E6B0E0EAE0FDE102C0EC
:1003100005900D92A03AB107D9F711E0C3E7D1E0FB
:1003200003C02197FE01DFDCC237D107D1F777D8B0
:10033000E0CC66CE8FB988E021E193E12DB99DB97B
:100340008150E1F78FB1089508952FB7F894FC011B
:10035000458556853AE06095089420F47BB3752373
:100360007BBB04C07BB3742B7BBB000098D697D6B5
:1003700096D695D666953A9581F72FBF81E090E0A5
:100380000895DC011F96ED91FC9120A131A182A17D
:1003900093A12817390779F0A2A1B3A1AE0FBF1F0F
:1003A0008C9122A133A12F5F3F4F2F71332733A3AD
:1003B00022A390E008958FEF9FEF0895DC011F9630
:1003C000ED91FC9120A131A182A193A128173907B9
:1003D00039F082A193A1E80FF91F808190E0089580
:1003E0008FEF9FEF0895DC011F96ED91FC9180A1A6
:1003F00091A122A133A1821B930B8F71992708959C
:10040000EF92FF920F931F93CF93DF938C017B01A9
:10041000D0E0C0E0F701EC0FFD1F6491662361F0AE
:10042000D801ED91FC910190F081E02DC801099572
:10043000892B11F02196EECFCE01DF91CF911F9144
:100440000F91FF90EF900895DC01ED91FC910190E8
:10045000F081E02D09940F931F93CF93DF93EC016C
:100460006DE0F2DF8C016AE0CE01EEDF800F911FBC
:10047000DF91CF911F910F9108950F931F93CF9309
:10048000DF93EC01BDDF8C01CE01E5DF800F911F12
:10049000DF91CF911F910F910895CF92DF92EF924C
:1004A000FF920F931F93CF93DF936C01EB017B01BE
:1004B000E40EF51E10E000E0CE15DF0561F0699155
:1004C000D601ED91FC910190F081E02DC6010995D6
:1004D000080F191FF1CFC801DF91CF911F910F9124
:1004E000FF90EF90DF90CF9008953FB7F894809100
:1004F000E5009091E600A091E700B091E80022B7F6
:1005000008B600FE05C02F3F19F00196A11DB11DD0
:100510003FBFBA2FA92F982F8827BC01CD01620FAA
:10052000711D811D911D43E0660F771F881F991F64
:100530004A95D1F70895CF92DF92EF92FF92CF9331
:10054000DF936B017C01D1DFEB01CFDF6C1B7D0BF7
:10055000683E7340A0F0C114D104E104F10439F401
:10056000DF91CF91FF90EF90DF90CF90089581E0E1
:10057000C81AD108E108F108C851DC4FE6CFC11410
:10058000D104E104F10409F7EBCF2FB7F89460919F
:10059000E1007091E2008091E3009091E4002FBFB0
:1005A00008952091EB003091EC002817390781F471
:1005B0009091E9008091EA00981751F0E091E900EC
:1005C000F0E0E056FF4F8081082E000C990B089553
:1005D0008FEF9FEF08950F931F93D7DF6093C501AF
:1005E0007093C6018093C7019093C8018DEB91E091
:1005F000D8DF97FF1CC0C9DF0091C5011091C6016B
:100600002091C7013091C801601B710B820B930BC5
:100610000091C1011091C2012091C3013091C40128
:10062000601771078207930708F38FEF9FEF1F9101
:100630000F9108952091EB003091EC0028173907B5
:1006400039F48FB7F8941092EA001092E9008FBF46
:100650000895EF92FF920F931F93CF93DF93DC01E6
:100660005C96ED90FC905D97E114F10479F481E0E3
:1006700090E013969C938E93129790E080E0DF9128
:10068000CF911F910F91FF90EF9008955196ED91AA
:10069000FC91529750968C915097982F90950FB748
:1006A0005E962C915E97122F127021FD6095F89442
:1006B0002081112319F1282B2083E7012197F1F7DD
:1006C00028E0462F50E0308160FF1AC0382B30837D
:1006D000E7012197F1F7BA0175956795215089F7E0
:1006E000112381F08081892380830FBF5C968D91D7
:1006F0009C910197F1F781E090E0C1CF2923DCCFF5
:100700003923E5CF9081892BEFCF2091EB003091F9
:10071000EC002817390769F48091EA002091E9007C
:1007200090E0805C9F4F821B910960E470E092DA58
:10073000089590E080E008952091EB003091EC0066
:1007400028173907B9F49091E9008091EA009817C9
:1007500089F0E091E900F0E0E056FF4F80812091C0
:10076000E90030E02F5F3F4F2F7333272093E900DC
:1007700090E008958FEF9FEF0895CF92DF92EF9270
:10078000FF921F93CF93DF9326DFEC0197FD4EC0BE
:100790008D32910521F0C0970A9708F041C0C12C15
:1007A000D12C760110E0C130D105D9F0CD32D10580
:1007B000D9F1CE01C0970A97A0F42AE030E040E0DA
:1007C00050E0C701B6012DDA6E01DD0FEE08FF081B
:1007D000C60ED71EE81EF91E80E3C81AD108E1082C
:1007E000F1088DEB91E0A8DFF6DEEC01C0970A97E7
:1007F000D0F2C130D105B9F2112341F0F094E09468
:10080000D094C094C11CD11CE11CF11CC701B601DD
:10081000DF91CF911F91FF90EF90DF90CF900895DF
:100820008DEB91E089DFB0CF11E0DBCFC12CD12C73
:100830007601ECCF1F93CF93DF93EC01FE0114916F
:10084000112361F01A3021F46DE08DEB91E0FCDDB5
:10085000612F8DEB91E0F8DD2196F0CFDF91CF9104
:100860001F91089590E0FC01E85DFF4F3491FC0179
:10087000E852FD4F2491FC01E453FD4FE491EE2337
:10088000B9F0332329F03130A1F480B78F7780BFDE
:10089000F0E0EE0FFF1FEA53FD4FA591B4918FB723
:1008A000611117C0F894EC9120952E232C938FBFE3
:1008B0000895323019F480B78F7DE9CF333021F4B9
:1008C0008FB58F778FBDE4CF343011F78FB58F7D23
:1008D000F9CFF894EC912E2BE9CF8091DE0189308D
:1008E00011F461E0BFCF08958091DE01893011F4E9
:1008F00060E0B8CF0895CF93DF93D82FC62FF4DFF1
:100900008D2F806817DD8C2F15DDDF91CF91E5CF1E
:10091000CF93C82FE9DF8C2F0DDD80E00BDDC82FD2
:10092000DCDF8C2FCF910895CF93DF93D0917A01A4
:10093000D81781F0C82F81E0EBDF837E682F6C2B06
:1009400081E0D9DFD11104C087E2E2DF87FFFCCF6D
:10095000C0937A01DF91CF9108951092790110929E
:100960007801109277011092760110927501109221
:10097000740188E2CDDF82FF06C08DE3C9DF682FF6
:1009800064608DE3B8DF80E1CFCF0F931F93CF93E7
:10099000DF93EC0184E0C8DF2097D9F088818823B9
:1009A000C1F0A2DF8EEBC6DC8E01005F1F4F899184
:1009B000C1DCC017D107D9F790DFC1E08DE3A8DF14
:1009C0008E7F682F6C2B8DE3DF91CF911F910F915C
:1009D00092CFC0E0F3CF0F931F93CF93DF9380911B
:1009E0007A01803109F068C088E292DF82FF3EC060
:1009F00084E09ADF79DF80E09DDC80E09BDCD82F0B
:100A0000C82F833408F0C2E4C093740180E092DC04
:100A1000082F80E08FDC182F80E08CDC90E09C01B8
:100A200046E0220F331F4A95E1F722273370202B2F
:100A30003093760120937501982F8827882793702B
:100A4000812B90937801809377018091DC0182174C
:100A5000130611F0232B11F4D330A0F4109274017B
:100A60003CDF7BDF80917A01803131F58091740128
:100A7000882319F184E058DF81E0DF91CF911F9145
:100A80000F910895C350C093790106E311E0D0E0BF
:100A9000DC1738F480E04EDCF80181938F01DF5FD2
:100AA000F7CFEC2FF0E0EA5CFE4F108216DF80E11A
:100AB0003BDF84E22DDFD6CF50DF80E0DECF61E088
:100AC00082E0D0DE64E170E080E090E034DD60E060
:100AD00082E0C8DE6CE370E080E090E02CDD61E055
:100AE00082E0C0DE64E170E080E090E024DD60E060
:100AF00082E0B8CECF93DF9387FD8F7790E0FC0143
:100B0000E852FD4F249184539D4FFC01849188232A
:100B1000D1F090E0880F991FFC01EE5DFF4FA59189
:100B2000B491FC01EA53FD4FC591D49161110EC0FF
:100B30009FB7F8948C91E22FE0958E238C932881B7
:100B4000E223E8839FBFDF91CF9108958FB7F89498
:100B5000EC91E22BEC938FBFF6CFCF92DF92EF9226
:100B6000FF920F931F93CF93DF93CDB7DEB7AD976F
:100B70000FB6F894DEBF0FBECDBF182F042F6093C1
:100B8000DC011092DD0161E08091DE01B3DF61E004
:100B90008091DF01AFDF60E08091E001ABDF61E0D9
:100BA0008091E101A7DF99DE80E18DB9EEDC6B0178
:100BB0007C016AEA8FE29FDE8FE2AADE8A3A51F078
:100BC000E4DC6C197D098E099F096233710581058A
:100BD000910578F3DADC6C197D098E099F0962337F
:100BE00071058105910508F0A9C0CFDC6B017C017E
:100BF00065E58FE280DE8FE28BDE853551F0C5DC66
:100C00006C197D098E099F09623371058105910573
:100C100078F3BBDC6C197D098E099F09623371057D
:100C20008105910508F08AC0FE0133968BE2DF0151
:100C30001D928A95E9F781E0898394E09A8322E006
:100C40002B8383E08D832E839F8390E4988725E018
:100C500029878A8786E08B8783E38C8787E08D8767
:100C600028E02F8729E0298B29E12B8B22E42C8B8C
:100C700035E23D8B9E8B96E29F8B888F88E2898F31
:100C800090E19A8F89E28B8F8CED8C8F8EE28D8F25
:100C900088E88E8F8FE28F8F8DE288A380E389A30F
:100CA00037E33BA330E93CA338E33DA32EA32CE379
:100CB0002FA32FE828A72DE329A79AA79FE69BA794
:100CC0008CA78CE6163509F489ED8E8780E41635FD
:100CD00009F480E0888B0AA38E010F5F1F4FF80193
:100CE0008081882329F0618106DE0E5F1F4FF7CFD8
:100CF00090E080E04ADE69E981E1FDDD84E014DE18
:100D000044DC6B017C0187E203DE87FD0AC03DDC29
:100D10006C197D098E099F09623371058105910562
:100D200090F333DCAB01BC014C195D096E097F09FE
:100D300081E0423351056105710508F080E0AD9610
:100D40000FB6F894DEBF0FBECDBFDF91CF911F91DC
:100D50000F91FF90EF90DF90CF900895EF92FF9268
:100D60000F931F93CF93DF937C018C01C3E0D0E0FE
:100D7000CE0138D7F80181938F012196C730D10574
:100D8000B9F7C701DF91CF911F910F91FF90EF90BD
:100D900008950F931F93CF93DF9300D000D0CDB76A
:100DA000DEB78C0190E080E01DD78F34B9F481E08C
:100DB00090E018D7853491F482E090E013D78D3419
:100DC00069F481E00115110551F0CE010196C6DFED
:100DD00081E02B813C812017310709F080E00F90E2
:100DE0000F900F900F90DF91CF911F910F91089569
:100DF000FF920F931F93CF93DF93EC01F62E0881A0
:100E00001981C801EFD6F81619F06F2DC801F2D676
:100E1000CE01DF91CF911F910F91FF900895FB01BB
:100E200001900020E9F73197AF01461B570BDC0119
:100E3000ED91FC910280F381E02D09948F929F92B5
:100E4000AF92BF92CF92DF92EF92FF920F931F93D8
:100E5000CF93DF93CDB7DEB7A1970FB6F894DEBF7F
:100E60000FBECDBF6C01142FE52FCB01022F19A2AD
:100E7000223008F40AE07E0121E2E20EF11C802E0D
:100E8000912CB12CA12C612F7E2FA5019401F5D6B8
:100E9000802F622FBDD6181B1A300CF5105DF7019C
:100EA00012937F01122FE32FCA01232B242B252B12
:100EB00051F7B701C601B3DFA1960FB6F894DEBFB4
:100EC0000FBECDBFDF91CF911F910F91FF90EF909B
:100ED000DF90CF90BF90AF909F908F900895195C56
:100EE000DECFCF92DF92EF92FF920F931F93CF93BB
:100EF000DF938C017B0164EC72E08FE991E080DA92
:100F0000D0E0C0E0CE15DF05ACF56801CC0EDD1EEB
:100F1000C60168D6803120F460E38FE991E094DA6D
:100F20002196C6015FD6482F50E070E060E020E1D6
:100F30008FE991E083DF65E870E08FE991E06FDF92
:100F4000CE0187709927892B29F465E870E08FE935
:100F500091E065DFCE018F709927892B99F662ECBD
:100F600072E08FE991E04CDA60EC72E08FE991E099
:100F700047DAC8CFDF91CF911F910F91FF90EF908B
:100F8000DF90CF900895CF93DF93482F50E070E02B
:100F900060E02AE08DEB91E051DFEC018DEB91E018
:100FA0005ADA8C0F9D1FDF91CF910895AB0170E04D
:100FB00060E02AE043CFCF92DF92EF92FF920F934F
:100FC0001F93CF93DF938C016A017B01D0E0C0E0D7
:100FD000F7FE0BC06DE238DAEC01F094E094D094A7
:100FE000C094C11CD11CE11CF11C2AE0B701A60170
:100FF000C80124DF8C0F9D1FDF91CF911F910F91AE
:10100000FF90EF90DF90CF9008951F920F920FB650
:101010000F9211242F933F934F935F937F938F935E
:101020009F93AF93BF93EF93FF934091AB0120E069
:1010300038E035D034D033D032D031D0889479B341
:10104000742309F0089427953A9509F0F3CF27D037
:1010500026D0E091AE01F091AF0180A191A101965F
:101060008F71992742A153A18417950739F0A0A148
:10107000B1A1AE0FBF1F2C9391A380A3449AFF91FF
:10108000EF91BF91AF919F918F917F915F914F9120
:101090003F912F910F900FBE0F901F901895809148
:1010A000B001982F9A95F1F708951F920F920FB6FD
:1010B0000F9211242F933F938F939F93AF93BF93DE
:1010C0008091E1009091E200A091E300B091E400F2
:1010D0003091E00026E0230F2D3768F129E8230F37
:1010E0000396A11DB11D2093E0008093E100909331
:1010F000E200A093E300B093E4008091E5009091BA
:10110000E600A091E700B091E8000196A11DB11D95
:101110008093E5009093E600A093E700B093E80089
:10112000BF91AF919F918F913F912F910F900FBEE3
:101130000F901F9018950296A11DB11DD4CF1F923C
:101140000F920FB60F9211242F933F934F935F93FB
:101150006F937F938F939F93AF93BF93EF93FF937F
:10116000E091EB00F091EC00309749F0A685B7854F
:101170008585968D91FF14C09C918923A1F4FF91E0
:10118000EF91BF91AF919F918F917F916F915F91FF
:101190004F913F912F910F900FBE0F901F90189578
:1011A0009C91892361F7A389B4899C918589809555
:1011B00089238C93868997890197F1F7608D718DCA
:1011C000A685B785558538E020E0CB010197F1F77A
:1011D000822F90E095958795282F4C91452309F013
:1011E0002068315091F7868D81FD20958091EA002D
:1011F00090E001968F7399273091E900381799F0A4
:10120000A091EA00B0E0A056BF4F2C938093EA0073
:10121000828D938D0197F1F7A389B4898C9195897B
:10122000892B8C93ACCF868D8160868FF1CFEF9226
:10123000FF920F931F93CF93DF9300D0CDB7DEB70C
:101240001092A2011092A10188EE93E0A0E0B0E01C
:101250008093A3019093A401A093A501B093A6014C
:1012600089E690E09093A00180939F018BE791E045
:101270009093AF018093AE0184E08093AB0182E054
:101280008093AC018DEF8093AD011092B0018EEF91
:1012900090E09093B8018093B70185E190E090933E
:1012A000B4018093B30182E190E09093B201809306
:1012B000B10185E890E09093BA018093B9018FEF76
:1012C00091E09093BC018093BB011092B601109203
:1012D000B50105E810E0C80185D4780195E1E90E73
:1012E000F11C8F3F59F11093B6010093B5018FEFB8
:1012F000E81681E0F80644F5C70174D48F3FD1F0B9
:1013000005E810E08091BB019091BC010817190716
:10131000DCF41A8309836FEFCE01019669DD109228
:10132000B6011092B5018091B3019091B401080FFC
:10133000191FE8CF95E1E90EF11CD9CF87018FEF96
:10134000E81681E0F80639F68AE08093DE018BE04A
:101350008093DF018CE08093E0018DE08093E101D8
:101360001092E2011092C0011092BF0188EE93E04A
:10137000A0E0B0E08093C1019093C201A093C301AB
:10138000B093C40189E790E09093BE018093BD01C2
:101390001092D4011092D3011092D6011092D5016F
:1013A0001092D8011092D7011092DA011092D9014F
:1013B0006091DB016E7F6D7F6093DB0166956170EC
:1013C00081E0682787E04EDA61E087E093DB80E820
:1013D0008093CD018BE390E09093CF018093CE0179
:1013E00060E083E087DB8091DB0181FD03C061E089
:1013F00083E038DA83E08093C90188E08093CA01F2
:1014000089E390E09093CC018093CB010F900F90F3
:10141000DF91CF911F910F91FF90EF900895CF939F
:10142000DF9300D000D000D0CDB7DEB783E080BF1F
:1014300083BF789499B7916099BF91E09FBD8EBDAD
:1014400086E886B961E082E055DB61E082E00ADA95
:101450001092D8011092D7011092D6011092D501A6
:101460001092D4011092D30181E390E09093DA01BD
:101470008093D9019091C9019C30C8F527E030E0F4
:101480003093D4012093D3012FE230E03093D60182
:101490002093D5012BE130E03093D8012093D70180
:1014A0008BB720E1983008F020E2822B8BBF22E33B
:1014B00030E0983030F020E430E09B3010F030E045
:1014C00020E03093D1012093D001492F50E0983093
:1014D00008F0C0C081E001C0880F9A95EAF78093B8
:1014E000D2018091D9019091DA010197F1F78091B1
:1014F000D7019091D801892B49F1E091EB00F0914F
:10150000EC0021E0ED3BF20709F1309739F0A389B7
:10151000B4899C918589809589238C938091DB0186
:101520008E7F8093DB011092EA001092E9008DEB30
:1015300091E09093EC008093EB00E091D001F0916A
:10154000D10180819091D201892B80836BE470E07E
:101550008DEB91E055D767E870E08DEB91E05FDCB3
:1015600064E370E08DEB91E088D787E190E011DCD7
:101570008823D1F0CE010196F1DBE980FA80F7FCF7
:1015800013C033E0E30EF11C71E6C72E70E0D72ED6
:1015900007E010E0C80126D3F60181936F010F5FC9
:1015A0001F4F0E151F05B0F360ED77E080E090E06F
:1015B000C2D789E08093DE0185E08093DF0186E079
:1015C0008093E00184E08093E1016091640070E029
:1015D000409163008BE2C1DA8FE890E0D6D960E0F9
:1015E00082E040D948E0E42EF12CCC24C394D12CE5
:1015F00062E0A62EB12CEFD9882309F453C06DEB1D
:1016000072E08DEB91E0FCD66BEB72E08DEB91E03C
:10161000F7D660917701709178018DEB91E0C6DC8F
:1016200069EB72E08DEB91E0EBD610E080917901EF
:101630001817D0F4E12FF0E0EA5CFE4F608170E013
:101640008DEB91E0B3DC67EB72E08DEB91E0D8D6E7
:101650001F5FECCF2AE030E0241B350B81E001C096
:10166000880F2A95EAF73BCF65EB72E08DEB91E0AE
:10167000C7D684E24DD9482F50E051954195510984
:1016800055954795052E000C660B770B8DEB91E079
:1016900092DC63EB72E08DEB91E0B2D68DEB91E0E2
:1016A000DAD60DDA80913501882309F46FC08EEA0D
:1016B00092E0C0D86091350170E08DEB91E076DC6E
:1016C0008AEA92E0B7D8109135018DE321D9682FCD
:1016D00064608DE310D959D72B013C0180917A01C8
:1016E000803191F58091740181112EC084E210D96E
:1016F00090E09195819591098C349F4F2CF584E071
:1017000013D984E011D987E203D987FFFCCF1E33B8
:1017100008F01DE3E9D880E80DD683E0810F0AD6F2
:1017200080E008D68091DC0105D680E003D623EF67
:10173000622E20E0722E00E0011791F0F3018191FA
:101740003F01F8D50F5FF8CF20D7641975098609D6
:101750009709683E73408105910598F63CD9BECF44
:10176000BCD88CE0E1D888E2D3D883FFFCCF84E0FA
:10177000DBD81092350161E082E074D86EE170E050
:1017800080E090E0D8D660E082E06CD88DEB91E00C
:10179000BCD7892B09F42FCF8DEB91E0B6D7892BDD
:1017A00009F4F0C18DEB91E0FCD6182F80ED810F8C
:1017B0008A30A8F481E08093F100E7D66093ED00D1
:1017C0007093EE008093EF009093F0008DEB91E02A
:1017D0009CD7892B39F18DEB91E0AED7F7CFD5D6D9
:1017E0004090ED005090EE006090EF007090F0009F
:1017F0006419750986099709613D7740810591054E
:1018000010F01092F1008091F10081110BC0193697
:1018100009F48CC04CF5143509F477C16CF41F330E
:1018200009F4A9C18DEB91E070D7892B09F4AAC105
:101830008DEB91E081D7F6CF163509F483C11736C9
:1018400089F79BD76093630080916000882341F003
:1018500062EA72E08DEB91E0D3D58091630093DB77
:1018600081E08093F200DECF1E3609F45FC00CF0F9
:101870004DC01C36B9F661E771E08DEB91E0FDD506
:1018800066E671E08DEB91E0BBD5809161008B3213
:1018900029F46FE571E08DEB91E0EFD58091610067
:1018A000863529F468E571E08DEB91E0E6D580910D
:1018B00061008B3529F461E571E08DEB91E0DDD5B8
:1018C00068E471E08DEB91E09BD54091620042515C
:1018D000550B052E000C660B770B8DEB91E06BDB47
:1018E00063E471E08DEB91E0C8D56AE371E08DEBC4
:1018F00091E086D58091630046DB6FE271E08DEB6D
:1019000091E07ED5809164003EDB8CCF133729F1C6
:10191000163709F087CF6EE872E08DEB91E070D555
:1019200067E870E08DEB91E07ADA7CCF26D766230A
:1019300091F0603408F06FE3609364008091600080
:10194000882309F48DCF6BE972E08DEB91E058D5D7
:101950008091640084CF61E0EFCF87E190E019DAF5
:10196000811120C01A8219826FE4CE01019640DAFB
:10197000DA82C98265E4CE0101963ADABA82A98296
:101980006DE4CE01019634DA03E010E01A83098396
:101990006FEFCE0101962CDA0F5F1F4F011522E089
:1019A0001207A1F7FA82E98287E190E09C838B839A
:1019B000CE0101963C0103E010E01E830D83F3018C
:1019C00061913F01CE01059613DA0F5F1F4F07307B
:1019D000110599F791E6692E90E0792E07E010E065
:1019E000F30161913F011E830D83CE01059600DA5C
:1019F0000F5F1F4F0B30110599F78091600088230E
:101A000009F410CF90E080E0C4D9811124C06AE1CC
:101A100071E08FE991E0F4D463E171E08FE991E046
:101A2000EFD460E072E08FE991E0C0DA6DEE70E033
:101A30008FE991E022D560E072E090E080E051DA39
:101A40006BEE70E08FE991E0DBD469EE70E08FE936
:101A500091E0D6D411C0CE01019680D98B819C81B2
:101A6000019681F467EE70E08FE991E0C9D466E9F0
:101A700070E08FE991E001D56CE171E08FE991E0D0
:101A8000FCD4D0CE64E970E08FE991E0B9D467E886
:101A900070E08FE991E0B4D46B817C818FE991E0B3
:101AA00085DA69807A8077FE03C071946194710849
:101AB00024E0621A710869E770E08FE991E0A0D430
:101AC000A301072C000C660B770B8FE991E073DA0A
:101AD00062E770E08FE991E093D489819A8197FF62
:101AE00005C067E670E08FE991E08AD48FE991E064
:101AF000B2D4B30187E090E0F4D965E670E08FE9F5
:101B000091E07ED463E670E0A2CF8DEB91E014D635
:101B100083EF682E80E0782E10E08DEB91E00CD6FC
:101B200090EE980F9F3538F4F30180831F5F930187
:101B30002F5F3F4F39018A3011F0123471F7109343
:101B4000350170CE1AD621E0672B682B692B09F47A
:101B500020E0209360006FE772E08DEB91E050D4BD
:101B6000809160006CE772E0811102C068E772E06A
:101B70008DEB91E085CF8BE791E05CD68DEB91E02A
:101B80006AD450CE9CD78091F200882309F433CDDB
:101B90006091640070E04091630080916100DDD746
:101BA0008FE890E0F2D61092F20025CD89E790E020
:101BB0009093BE018093BD018091EB009091EC0069
:101BC0008D5B914071F4E091D001F091D101908151
:101BD0008091D2018095892380831092EC0010922D
:101BE000EB000895E199FECF9FBB8EBBE09A992749
:101BF0008DB30895262FE199FECF1CBA9FBB8EBBF3
:101C00002DBB0FB6F894E29AE19A0FBE01960895A3
:101C1000002480FD060E660F11F08695D1F7802D09
:101C20000895EE27FF27AA27BB2708C0A20FB31FDE
:101C3000E41FF51F220F331F441F551F96958795EC
:101C40007795679598F37040A9F7009799F7BD01CC
:101C5000CF01089597FB072E16F4009406D077FD68
:101C600008D02DD007FC05D03EF4909581959F4F6C
:101C70000895709561957F4F0895A1E21A2EAA1BD1
:101C8000BB1BFD010DC0AA1FBB1FEE1FFF1FA2172C
:101C9000B307E407F50720F0A21BB30BE40BF50B29
:101CA000661F771F881F991F1A9469F760957095B2
:101CB000809590959B01AC01BD01CF010895AA1BB1
:101CC000BB1B51E107C0AA1FBB1FA617B70710F027
:101CD000A61BB70B881F991F5A95A9F78095909559
:101CE000BC01CD010895EE0FFF1F0590F491E02D8A
:101CF000099411E0C3E7D1E003C0FE01F4DF2196AF
:0A1D0000C437D107D1F7F894FFCFE4
:101D0A00012B19D20500000000A5014D02F301C103
:101D1A0001DE01A4010000000029034D0285039C95
:101D2A0003D1021A032000312E302E300A0D00385A
:101D3A00397478626534703861696B356B74330055
:00000001FF
